{
  "address": "0x83Dc1a2321Da7c4aB1a8299c2381c81ABa4Af81D",
  "abi": [
    {
      "anonymous": false,
      "inputs": [
        {
          "indexed": false,
          "internalType": "address",
          "name": "previousAdmin",
          "type": "address"
        },
        {
          "indexed": false,
          "internalType": "address",
          "name": "newAdmin",
          "type": "address"
        }
      ],
      "name": "AdminChanged",
      "type": "event"
    },
    {
      "anonymous": false,
      "inputs": [
        {
          "indexed": true,
          "internalType": "address",
          "name": "beacon",
          "type": "address"
        }
      ],
      "name": "BeaconUpgraded",
      "type": "event"
    },
    {
      "anonymous": false,
      "inputs": [
        {
          "indexed": true,
          "internalType": "address",
          "name": "user",
          "type": "address"
        },
        {
          "indexed": true,
          "internalType": "uint256",
          "name": "positionId",
          "type": "uint256"
        },
        {
          "indexed": false,
          "internalType": "uint256",
          "name": "amount",
          "type": "uint256"
        }
      ],
      "name": "Claim",
      "type": "event"
    },
    {
      "anonymous": false,
      "inputs": [
        {
          "indexed": true,
          "internalType": "address",
          "name": "user",
          "type": "address"
        },
        {
          "indexed": true,
          "internalType": "uint256",
          "name": "positionId",
          "type": "uint256"
        },
        {
          "indexed": false,
          "internalType": "uint256",
          "name": "amount",
          "type": "uint256"
        }
      ],
      "name": "Deposit",
      "type": "event"
    },
    {
      "anonymous": false,
      "inputs": [
        {
          "indexed": false,
          "internalType": "uint8",
          "name": "version",
          "type": "uint8"
        }
      ],
      "name": "Initialized",
      "type": "event"
    },
    {
      "anonymous": false,
      "inputs": [
        {
          "indexed": true,
          "internalType": "address",
          "name": "previousOwner",
          "type": "address"
        },
        {
          "indexed": true,
          "internalType": "address",
          "name": "newOwner",
          "type": "address"
        }
      ],
      "name": "OwnershipTransferred",
      "type": "event"
    },
    {
      "anonymous": false,
      "inputs": [
        {
          "indexed": true,
          "internalType": "address",
          "name": "user",
          "type": "address"
        },
        {
          "indexed": true,
          "internalType": "uint256",
          "name": "positionId",
          "type": "uint256"
        }
      ],
      "name": "RegisterUser",
      "type": "event"
    },
    {
      "anonymous": false,
      "inputs": [
        {
          "indexed": true,
          "internalType": "address",
          "name": "implementation",
          "type": "address"
        }
      ],
      "name": "Upgraded",
      "type": "event"
    },
    {
      "anonymous": false,
      "inputs": [
        {
          "indexed": true,
          "internalType": "address",
          "name": "user",
          "type": "address"
        },
        {
          "indexed": true,
          "internalType": "uint256",
          "name": "positionId",
          "type": "uint256"
        },
        {
          "indexed": false,
          "internalType": "uint256",
          "name": "amount",
          "type": "uint256"
        }
      ],
      "name": "Withdraw",
      "type": "event"
    },
    {
      "inputs": [],
      "name": "_resetStaking",
      "outputs": [],
      "stateMutability": "nonpayable",
      "type": "function"
    },
    {
      "inputs": [],
      "name": "accPerShare",
      "outputs": [
        {
          "internalType": "uint256",
          "name": "",
          "type": "uint256"
        }
      ],
      "stateMutability": "view",
      "type": "function"
    },
    {
      "inputs": [
        {
          "internalType": "uint256",
          "name": "amount",
          "type": "uint256"
        }
      ],
      "name": "addFunds",
      "outputs": [],
      "stateMutability": "nonpayable",
      "type": "function"
    },
    {
      "inputs": [],
      "name": "autoIncrease",
      "outputs": [
        {
          "internalType": "bool",
          "name": "",
          "type": "bool"
        }
      ],
      "stateMutability": "view",
      "type": "function"
    },
    {
      "inputs": [],
      "name": "btc",
      "outputs": [
        {
          "internalType": "contract IERC20",
          "name": "",
          "type": "address"
        }
      ],
      "stateMutability": "view",
      "type": "function"
    },
    {
      "inputs": [],
      "name": "claim",
      "outputs": [
        {
          "internalType": "uint256",
          "name": "reward",
          "type": "uint256"
        }
      ],
      "stateMutability": "nonpayable",
      "type": "function"
    },
    {
      "inputs": [
        {
          "internalType": "address",
          "name": "account",
          "type": "address"
        }
      ],
      "name": "claimable",
      "outputs": [
        {
          "internalType": "uint256",
          "name": "reward",
          "type": "uint256"
        }
      ],
      "stateMutability": "view",
      "type": "function"
    },
    {
      "inputs": [],
      "name": "closePosition",
      "outputs": [],
      "stateMutability": "nonpayable",
      "type": "function"
    },
    {
      "inputs": [
        {
          "internalType": "uint256",
          "name": "amount",
          "type": "uint256"
        }
      ],
      "name": "deposit",
      "outputs": [
        {
          "internalType": "uint256",
          "name": "reward",
          "type": "uint256"
        }
      ],
      "stateMutability": "nonpayable",
      "type": "function"
    },
    {
      "inputs": [],
      "name": "emergencyWithdraw",
      "outputs": [],
      "stateMutability": "nonpayable",
      "type": "function"
    },
    {
      "inputs": [],
      "name": "fire",
      "outputs": [
        {
          "internalType": "contract IERC20",
          "name": "",
          "type": "address"
        }
      ],
      "stateMutability": "view",
      "type": "function"
    },
    {
      "inputs": [],
      "name": "fireStake",
      "outputs": [
        {
          "internalType": "contract IBondfireStake",
          "name": "",
          "type": "address"
        }
      ],
      "stateMutability": "view",
      "type": "function"
    },
    {
      "inputs": [],
      "name": "initialize",
      "outputs": [],
      "stateMutability": "nonpayable",
      "type": "function"
    },
    {
      "inputs": [],
      "name": "nft",
      "outputs": [
        {
          "internalType": "contract IERC721",
          "name": "",
          "type": "address"
        }
      ],
      "stateMutability": "view",
      "type": "function"
    },
    {
      "inputs": [],
      "name": "owner",
      "outputs": [
        {
          "internalType": "address",
          "name": "",
          "type": "address"
        }
      ],
      "stateMutability": "view",
      "type": "function"
    },
    {
      "inputs": [],
      "name": "proxiableUUID",
      "outputs": [
        {
          "internalType": "bytes32",
          "name": "",
          "type": "bytes32"
        }
      ],
      "stateMutability": "view",
      "type": "function"
    },
    {
      "inputs": [
        {
          "internalType": "uint256",
          "name": "positionId",
          "type": "uint256"
        }
      ],
      "name": "registerPosition",
      "outputs": [],
      "stateMutability": "nonpayable",
      "type": "function"
    },
    {
      "inputs": [],
      "name": "renounceOwnership",
      "outputs": [],
      "stateMutability": "nonpayable",
      "type": "function"
    },
    {
      "inputs": [
        {
          "internalType": "bool",
          "name": "increase",
          "type": "bool"
        }
      ],
      "name": "setAutoIncrease",
      "outputs": [],
      "stateMutability": "nonpayable",
      "type": "function"
    },
    {
      "inputs": [],
      "name": "totalBtc",
      "outputs": [
        {
          "internalType": "uint256",
          "name": "",
          "type": "uint256"
        }
      ],
      "stateMutability": "view",
      "type": "function"
    },
    {
      "inputs": [],
      "name": "totalInStake",
      "outputs": [
        {
          "internalType": "uint256",
          "name": "",
          "type": "uint256"
        }
      ],
      "stateMutability": "view",
      "type": "function"
    },
    {
      "inputs": [],
      "name": "totalUsers",
      "outputs": [
        {
          "internalType": "uint256",
          "name": "",
          "type": "uint256"
        }
      ],
      "stateMutability": "view",
      "type": "function"
    },
    {
      "inputs": [
        {
          "internalType": "address",
          "name": "newOwner",
          "type": "address"
        }
      ],
      "name": "transferOwnership",
      "outputs": [],
      "stateMutability": "nonpayable",
      "type": "function"
    },
    {
      "inputs": [
        {
          "internalType": "address",
          "name": "newImplementation",
          "type": "address"
        }
      ],
      "name": "upgradeTo",
      "outputs": [],
      "stateMutability": "nonpayable",
      "type": "function"
    },
    {
      "inputs": [
        {
          "internalType": "address",
          "name": "newImplementation",
          "type": "address"
        },
        {
          "internalType": "bytes",
          "name": "data",
          "type": "bytes"
        }
      ],
      "name": "upgradeToAndCall",
      "outputs": [],
      "stateMutability": "payable",
      "type": "function"
    },
    {
      "inputs": [
        {
          "internalType": "address",
          "name": "",
          "type": "address"
        }
      ],
      "name": "userInfo",
      "outputs": [
        {
          "internalType": "uint256",
          "name": "positionId",
          "type": "uint256"
        },
        {
          "internalType": "uint256",
          "name": "amount",
          "type": "uint256"
        },
        {
          "internalType": "uint256",
          "name": "rewardDebt",
          "type": "uint256"
        },
        {
          "internalType": "uint256",
          "name": "maxAmount",
          "type": "uint256"
        },
        {
          "internalType": "uint256",
          "name": "registerAt",
          "type": "uint256"
        },
        {
          "internalType": "uint256",
          "name": "endAt",
          "type": "uint256"
        },
        {
          "internalType": "uint256",
          "name": "reward",
          "type": "uint256"
        },
        {
          "internalType": "bool",
          "name": "ended",
          "type": "bool"
        }
      ],
      "stateMutability": "view",
      "type": "function"
    },
    {
      "inputs": [
        {
          "internalType": "uint256",
          "name": "amount",
          "type": "uint256"
        }
      ],
      "name": "withdraw",
      "outputs": [],
      "stateMutability": "nonpayable",
      "type": "function"
    },
    {
      "inputs": [],
      "name": "withdrawAll",
      "outputs": [],
      "stateMutability": "nonpayable",
      "type": "function"
    }
  ],
  "transactionHash": "0xaa8bf7d835bac3a840154161c48ea4727284781aa53c9b58a446787f41e3f1bd",
  "args": [],
  "numDeployments": 2,
  "solcInputHash": "eeb36f857b3cf09e10ec77f0e0ebf1ea",
  "bytecode": "0x60a06040523060805234801561001457600080fd5b5061001e33610023565b61007e565b600080546001600160a01b038381166201000081810262010000600160b01b0319851617855560405193049190911692909183917f8be0079c531659141344cd1fd0a4f28419497f9722a3daafe3b4186f6b6457e091a35050565b6080516121bc6100b5600039600081816107220152818161076201528181610c5301528181610c930152610d2601526121bc6000f3fe6080604052600436106101b75760003560e01c80638da5cb5b116100ec578063c393d0e31161008a578063d2890a0111610064578063d2890a011461051e578063db2e21bc14610534578063ecb2350f14610549578063f2fde38b1461056957600080fd5b8063c393d0e3146104cb578063c40d9e64146104e0578063cd1839f8146104f657600080fd5b8063a28d57d8116100c6578063a28d57d81461044d578063b6b55f2514610475578063be99970514610495578063bff1f9e1146104b557600080fd5b80638da5cb5b146103f457806391a1b158146104185780639aaf5cfc1461042d57600080fd5b80634f1ef2861161015957806369f0d2d91161013357806369f0d2d91461038b578063715018a6146103b55780638129fc1c146103ca578063853828b6146103df57600080fd5b80634f1ef2861461034d57806352d1902d146103605780635924cf691461037557600080fd5b8063402914f511610195578063402914f5146102a2578063457094cc146102d057806347ccca02146103105780634e71d92d1461033857600080fd5b80631959a002146101bc5780632e1a7d4d146102605780633659cfe614610282575b600080fd5b3480156101c857600080fd5b5061021e6101d7366004611da1565b600160208190526000918252604090912080549181015460028201546003830154600484015460058501546006860154600790960154949593949293919290919060ff1688565b604080519889526020890197909752958701949094526060860192909252608085015260a084015260c0830152151560e0820152610100015b60405180910390f35b34801561026c57600080fd5b5061028061027b366004611dbc565b610589565b005b34801561028e57600080fd5b5061028061029d366004611da1565b610718565b3480156102ae57600080fd5b506102c26102bd366004611da1565b6107f7565b604051908152602001610257565b3480156102dc57600080fd5b506102f873c2f7f1f93104ee64b192ed61c9872acdbbd9d45d81565b6040516001600160a01b039091168152602001610257565b34801561031c57600080fd5b506102f87318e84b96ac3c584ec5ae2fc4731248aa7de554b781565b34801561034457600080fd5b506102c26108cd565b61028061035b366004611deb565b610c49565b34801561036c57600080fd5b506102c2610d19565b34801561038157600080fd5b506102c260055481565b34801561039757600080fd5b506006546103a59060ff1681565b6040519015158152602001610257565b3480156103c157600080fd5b50610280610dcc565b3480156103d657600080fd5b50610280610de0565b3480156103eb57600080fd5b50610280610ef1565b34801561040057600080fd5b506000546201000090046001600160a01b03166102f8565b34801561042457600080fd5b50610280610f0e565b34801561043957600080fd5b50610280610448366004611dbc565b611051565b34801561045957600080fd5b506102f873b17d901469b9208b17d916112988a3fed19b5ca181565b34801561048157600080fd5b506102c2610490366004611dbc565b6111fb565b3480156104a157600080fd5b506102806104b0366004611dbc565b611494565b3480156104c157600080fd5b506102c260025481565b3480156104d757600080fd5b5061028061151c565b3480156104ec57600080fd5b506102c260035481565b34801561050257600080fd5b506102f873efc7429973c2bf2d40e2589c4de06d1f4225583281565b34801561052a57600080fd5b506102c260045481565b34801561054057600080fd5b50610280611653565b34801561055557600080fd5b50610280610564366004611ebb565b6117de565b34801561057557600080fd5b50610280610584366004611da1565b6117f9565b336000908152600160208190526040909120908101548211156105e35760405162461bcd60e51b815260206004820152600d60248201526c115e18d9595908185b5bdd5b9d609a1b60448201526064015b60405180910390fd5b80600401546000036106075760405162461bcd60e51b81526004016105da90611edf565b60018101541580159061061f5750600781015460ff16155b1561062e5761062c6108cd565b505b818160010160008282546106429190611f1a565b92505081905550816003600082825461065b9190611f1a565b909155505060405163a9059cbb60e01b81523360048201526024810183905273c2f7f1f93104ee64b192ed61c9872acdbbd9d45d9063a9059cbb906044016020604051808303816000875af11580156106b8573d6000803e3d6000fd5b505050506040513d601f19601f820116820180604052508101906106dc9190611f2d565b50805460405183815233907ff279e6a1f5e320cca91135676d9cb6e44ca8a08c0b88342bcdb1144f6511b5689060200160405180910390a35050565b6001600160a01b037f00000000000000000000000000000000000000000000000000000000000000001630036107605760405162461bcd60e51b81526004016105da90611f4a565b7f00000000000000000000000000000000000000000000000000000000000000006001600160a01b03166107a9600080516020612140833981519152546001600160a01b031690565b6001600160a01b0316146107cf5760405162461bcd60e51b81526004016105da90611f96565b6107d88161186f565b604080516000808252602082019092526107f491839190611877565b50565b6001600160a01b038116600090815260016020819052604082209081015482036108245750600092915050565b600781015460ff161561083a5750600092915050565b670de0b6b3a76400008160020154600454836001015461085a9190611fe2565b6108649190611f1a565b61086e9190611ff9565b915081156108c75742816005015410156108c75760008160040154426108949190611f1a565b60058301546108a39042611f1a565b6108ad9085611fe2565b6108b79190611ff9565b90506108c38184611f1a565b9250505b50919050565b33600090815260016020819052604082209081015482036109235760405162461bcd60e51b815260206004820152601060248201526f4e6f7468696e6720746f20636c61696d60801b60448201526064016105da565b600781015460ff161561096a5760405162461bcd60e51b815260206004820152600f60248201526e10b2b73232b2103837b9b4ba34b7b760891b60448201526064016105da565b670de0b6b3a76400008160020154600454836001015461098a9190611fe2565b6109949190611f1a565b61099e9190611ff9565b91508115610c455760045481600101546109b89190611fe2565b600282015560058101544211610a6357818160060160008282546109dc919061201b565b909155505060405163a9059cbb60e01b81523360048201526024810183905273b17d901469b9208b17d916112988a3fed19b5ca19063a9059cbb906044016020604051808303816000875af1158015610a39573d6000803e3d6000fd5b505050506040513d601f19601f82011682018060405250810190610a5d9190611f2d565b50610c0d565b6000816004015442610a759190611f1a565b6005830154610a849042611f1a565b610a8e9085611fe2565b610a989190611ff9565b60065490915060ff1615610ab457610aaf816119e7565b610b5a565b73b17d901469b9208b17d916112988a3fed19b5ca163a9059cbb610ae76000546001600160a01b03620100009091041690565b6040516001600160e01b031960e084901b1681526001600160a01b039091166004820152602481018490526044016020604051808303816000875af1158015610b34573d6000803e3d6000fd5b505050506040513d601f19601f82011682018060405250810190610b589190611f2d565b505b610b648184611f1a565b925082826006016000828254610b7a919061201b565b909155505060078201805460ff1916600117905560405163a9059cbb60e01b81523360048201526024810184905273b17d901469b9208b17d916112988a3fed19b5ca19063a9059cbb906044016020604051808303816000875af1158015610be6573d6000803e3d6000fd5b505050506040513d601f19601f82011682018060405250810190610c0a9190611f2d565b50505b805460405183815233907f34fcbac0073d7c3d388e51312faf357774904998eeb8fca628b9e6f65ee1cbf79060200160405180910390a35b5090565b6001600160a01b037f0000000000000000000000000000000000000000000000000000000000000000163003610c915760405162461bcd60e51b81526004016105da90611f4a565b7f00000000000000000000000000000000000000000000000000000000000000006001600160a01b0316610cda600080516020612140833981519152546001600160a01b031690565b6001600160a01b031614610d005760405162461bcd60e51b81526004016105da90611f96565b610d098261186f565b610d1582826001611877565b5050565b6000306001600160a01b037f00000000000000000000000000000000000000000000000000000000000000001614610db95760405162461bcd60e51b815260206004820152603860248201527f555550535570677261646561626c653a206d757374206e6f742062652063616c60448201527f6c6564207468726f7567682064656c656761746563616c6c000000000000000060648201526084016105da565b5060008051602061214083398151915290565b610dd4611a71565b610dde6000611ad2565b565b600054610100900460ff1615808015610e005750600054600160ff909116105b80610e1a5750303b158015610e1a575060005460ff166001145b610e7d5760405162461bcd60e51b815260206004820152602e60248201527f496e697469616c697a61626c653a20636f6e747261637420697320616c72656160448201526d191e481a5b9a5d1a585b1a5e995960921b60648201526084016105da565b6000805460ff191660011790558015610ea0576000805461ff0019166101001790555b610ea933611ad2565b80156107f4576000805461ff0019169055604051600181527f7f26b83ff96e1f2b6a682f133852f6798a09c465da95921460cefb38474024989060200160405180910390a150565b3360009081526001602081905260409091200154610dde90610589565b610f16611a71565b6040516370a0823160e01b81523060048201527318e84b96ac3c584ec5ae2fc4731248aa7de554b7906370a0823190602401602060405180830381865afa158015610f65573d6000803e3d6000fd5b505050506040513d601f19601f82011682018060405250810190610f89919061202e565b15610fca5760405162461bcd60e51b815260206004820152601160248201527050656e64696e6720636c656172616e636560781b60448201526064016105da565b600060048181556003919091556040516370a0823160e01b8152309181019190915273b17d901469b9208b17d916112988a3fed19b5ca1906370a0823190602401602060405180830381865afa158015611028573d6000803e3d6000fd5b505050506040513d601f19601f8201168201806040525081019061104c919061202e565b600555565b6040516323b872dd60e01b81527318e84b96ac3c584ec5ae2fc4731248aa7de554b7906323b872dd9061108c90339030908690600401612047565b600060405180830381600087803b1580156110a657600080fd5b505af11580156110ba573d6000803e3d6000fd5b505033600090815260016020526040902060048101549092501590506111175760405162461bcd60e51b8152602060048201526012602482015271105b1c9958591e48149959da5cdd195c995960721b60448201526064016105da565b6040516316c6930960e21b815260048101839052600090819073efc7429973c2bf2d40e2589c4de06d1f4225583290635b1a4c249060240160c060405180830381865afa15801561116c573d6000803e3d6000fd5b505050506040513d601f19601f82011682018060405250810190611190919061206b565b5050508686556003860181905560058601829055426004870155604051919450925085915033907f721da55c3f9ea8457b79364e644713bdb29658b1a884fe72b2503e61fa80c19790600090a36001600260008282546111f0919061201b565b909155505050505050565b3360009081526001602052604081206004810154820361122d5760405162461bcd60e51b81526004016105da90611edf565b42816005015410156112735760405162461bcd60e51b815260206004820152600f60248201526e10b2b73232b2103837b9b4ba34b7b760891b60448201526064016105da565b6040516323b872dd60e01b815273c2f7f1f93104ee64b192ed61c9872acdbbd9d45d906323b872dd906112ae90339030908890600401612047565b6020604051808303816000875af11580156112cd573d6000803e3d6000fd5b505050506040513d601f19601f820116820180604052508101906112f19190611f2d565b506001810154156113c957670de0b6b3a76400008160020154600454836001015461131c9190611fe2565b6113269190611f1a565b6113309190611ff9565b915081816006016000828254611346919061201b565b909155505060405163a9059cbb60e01b81523360048201526024810183905273b17d901469b9208b17d916112988a3fed19b5ca19063a9059cbb906044016020604051808303816000875af11580156113a3573d6000803e3d6000fd5b505050506040513d601f19601f820116820180604052508101906113c79190611f2d565b505b8281600101546113d9919061201b565b600182018190556004546113ed9190611fe2565b81600201819055508260036000828254611407919061201b565b90915550506003810154600182015411156114575760405162461bcd60e51b815260206004820152601060248201526f115e18d959590813585e105b5bdd5b9d60821b60448201526064016105da565b805460405184815233907f90890809c654f11d6e72a28fa60149770a0d11ec6c92319d6ceb2bb0a4ea1a159060200160405180910390a350919050565b6040516323b872dd60e01b815273b17d901469b9208b17d916112988a3fed19b5ca1906323b872dd906114cf90339030908690600401612047565b6020604051808303816000875af11580156114ee573d6000803e3d6000fd5b505050506040513d601f19601f820116820180604052508101906115129190611f2d565b506107f4816119e7565b336000908152600160205260408120600481015490910361156e5760405162461bcd60e51b815260206004820152600c60248201526b155b9c9959da5cdd195c995960a21b60448201526064016105da565b600181015415611585576115858160010154610589565b80546040516323b872dd60e01b81527318e84b96ac3c584ec5ae2fc4731248aa7de554b7916323b872dd916115c1913091339190600401612047565b600060405180830381600087803b1580156115db57600080fd5b505af11580156115ef573d6000803e3d6000fd5b505033600090815260016020819052604082208281559081018290556002808201839055600382018390556004820183905560058201839055600682018390556007909101805460ff1916905580549350915061164b836120b5565b919050555050565b33600090815260016020526040812060048101549091036116865760405162461bcd60e51b81526004016105da90611edf565b80600101546003600082825461169c9190611f1a565b9091555050600181015460405163a9059cbb60e01b8152336004820152602481019190915273c2f7f1f93104ee64b192ed61c9872acdbbd9d45d9063a9059cbb906044016020604051808303816000875af11580156116ff573d6000803e3d6000fd5b505050506040513d601f19601f820116820180604052508101906117239190611f2d565b5080546040516323b872dd60e01b81527318e84b96ac3c584ec5ae2fc4731248aa7de554b7916323b872dd91611760913091339190600401612047565b600060405180830381600087803b15801561177a57600080fd5b505af115801561178e573d6000803e3d6000fd5b50503360009081526001602081905260408220828155908101829055600281018290556003810182905560048101829055600581018290556006810191909155600701805460ff19169055505050565b6117e6611a71565b6006805460ff1916911515919091179055565b611801611a71565b6001600160a01b0381166118665760405162461bcd60e51b815260206004820152602660248201527f4f776e61626c653a206e6577206f776e657220697320746865207a65726f206160448201526564647265737360d01b60648201526084016105da565b6107f481611ad2565b6107f4611a71565b7f4910fdfa16fed3260ed0e7147f7cc6da11a60208b5b9406d12a635614ffd91435460ff16156118af576118aa83611b2d565b505050565b826001600160a01b03166352d1902d6040518163ffffffff1660e01b8152600401602060405180830381865afa925050508015611909575060408051601f3d908101601f191682019092526119069181019061202e565b60015b61196c5760405162461bcd60e51b815260206004820152602e60248201527f45524331393637557067726164653a206e657720696d706c656d656e7461746960448201526d6f6e206973206e6f74205555505360901b60648201526084016105da565b60008051602061214083398151915281146119db5760405162461bcd60e51b815260206004820152602960248201527f45524331393637557067726164653a20756e737570706f727465642070726f786044820152681a58589b195555525160ba1b60648201526084016105da565b506118aa838383611bc9565b80600560008282546119f9919061201b565b9091555050600354156107f45760045415611a4957600354611a2382670de0b6b3a7640000611fe2565b611a2d9190611ff9565b60046000828254611a3e919061201b565b909155506107f49050565b600354600554611a6190670de0b6b3a7640000611fe2565b611a6b9190611ff9565b60045550565b6000546001600160a01b0362010000909104163314610dde5760405162461bcd60e51b815260206004820181905260248201527f4f776e61626c653a2063616c6c6572206973206e6f7420746865206f776e657260448201526064016105da565b600080546001600160a01b038381166201000081810262010000600160b01b0319851617855560405193049190911692909183917f8be0079c531659141344cd1fd0a4f28419497f9722a3daafe3b4186f6b6457e091a35050565b6001600160a01b0381163b611b9a5760405162461bcd60e51b815260206004820152602d60248201527f455243313936373a206e657720696d706c656d656e746174696f6e206973206e60448201526c1bdd08184818dbdb9d1c9858dd609a1b60648201526084016105da565b60008051602061214083398151915280546001600160a01b0319166001600160a01b0392909216919091179055565b611bd283611bf4565b600082511180611bdf5750805b156118aa57611bee8383611c34565b50505050565b611bfd81611b2d565b6040516001600160a01b038216907fbc7cd75a20ee27fd9adebab32041f755214dbc6bffa90cc0225b39da2e5c2d3b90600090a250565b6060611c59838360405180606001604052806027815260200161216060279139611c62565b90505b92915050565b6060600080856001600160a01b031685604051611c7f91906120f0565b600060405180830381855af49150503d8060008114611cba576040519150601f19603f3d011682016040523d82523d6000602084013e611cbf565b606091505b5091509150611cd086838387611cda565b9695505050505050565b60608315611d49578251600003611d42576001600160a01b0385163b611d425760405162461bcd60e51b815260206004820152601d60248201527f416464726573733a2063616c6c20746f206e6f6e2d636f6e747261637400000060448201526064016105da565b5081611d53565b611d538383611d5b565b949350505050565b815115611d6b5781518083602001fd5b8060405162461bcd60e51b81526004016105da919061210c565b80356001600160a01b0381168114611d9c57600080fd5b919050565b600060208284031215611db357600080fd5b611c5982611d85565b600060208284031215611dce57600080fd5b5035919050565b634e487b7160e01b600052604160045260246000fd5b60008060408385031215611dfe57600080fd5b611e0783611d85565b9150602083013567ffffffffffffffff80821115611e2457600080fd5b818501915085601f830112611e3857600080fd5b813581811115611e4a57611e4a611dd5565b604051601f8201601f19908116603f01168101908382118183101715611e7257611e72611dd5565b81604052828152886020848701011115611e8b57600080fd5b8260208601602083013760006020848301015280955050505050509250929050565b80151581146107f457600080fd5b600060208284031215611ecd57600080fd5b8135611ed881611ead565b9392505050565b6020808252600b908201526a085c9959da5cdd195c995960aa1b604082015260600190565b634e487b7160e01b600052601160045260246000fd5b81810381811115611c5c57611c5c611f04565b600060208284031215611f3f57600080fd5b8151611ed881611ead565b6020808252602c908201527f46756e6374696f6e206d7573742062652063616c6c6564207468726f7567682060408201526b19195b1959d85d1958d85b1b60a21b606082015260800190565b6020808252602c908201527f46756e6374696f6e206d7573742062652063616c6c6564207468726f7567682060408201526b6163746976652070726f787960a01b606082015260800190565b8082028115828204841417611c5c57611c5c611f04565b60008261201657634e487b7160e01b600052601260045260246000fd5b500490565b80820180821115611c5c57611c5c611f04565b60006020828403121561204057600080fd5b5051919050565b6001600160a01b039384168152919092166020820152604081019190915260600190565b60008060008060008060c0878903121561208457600080fd5b865195506020870151945060408701519350606087015192506080870151915060a087015190509295509295509295565b6000816120c4576120c4611f04565b506000190190565b60005b838110156120e75781810151838201526020016120cf565b50506000910152565b600082516121028184602087016120cc565b9190910192915050565b602081526000825180602084015261212b8160408501602087016120cc565b601f01601f1916919091016040019291505056fe360894a13ba1a3210667c828492db98dca3e2076cc3735a920a3ca505d382bbc416464726573733a206c6f772d6c6576656c2064656c65676174652063616c6c206661696c6564a2646970667358221220a1add73623d5afbdda6a4beafacd51c6cf1fa8c1f2f4a2023007b42a0ecc6bdf64736f6c63430008120033",
  "devdoc": {
    "events": {
      "AdminChanged(address,address)": {
        "details": "Emitted when the admin account has changed."
      },
      "BeaconUpgraded(address)": {
        "details": "Emitted when the beacon is changed."
      },
      "Initialized(uint8)": {
        "details": "Triggered when the contract has been initialized or reinitialized."
      },
      "Upgraded(address)": {
        "details": "Emitted when the implementation is upgraded."
      }
    },
    "kind": "dev",
    "methods": {
      "owner()": {
        "details": "Returns the address of the current owner."
      },
      "proxiableUUID()": {
        "details": "Implementation of the ERC1822 {proxiableUUID} function. This returns the storage slot used by the implementation. It is used to validate the implementation's compatibility when performing an upgrade. IMPORTANT: A proxy pointing at a proxiable contract should not be considered proxiable itself, because this risks bricking a proxy that upgrades to it, by delegating to itself until out of gas. Thus it is critical that this function revert if invoked through a proxy. This is guaranteed by the `notDelegated` modifier."
      },
      "renounceOwnership()": {
        "details": "Leaves the contract without owner. It will not be possible to call `onlyOwner` functions. Can only be called by the current owner. NOTE: Renouncing ownership will leave the contract without an owner, thereby disabling any functionality that is only available to the owner."
      },
      "transferOwnership(address)": {
        "details": "Transfers ownership of the contract to a new account (`newOwner`). Can only be called by the current owner."
      },
      "upgradeTo(address)": {
        "custom:oz-upgrades-unsafe-allow-reachable": "delegatecall",
        "details": "Upgrade the implementation of the proxy to `newImplementation`. Calls {_authorizeUpgrade}. Emits an {Upgraded} event."
      },
      "upgradeToAndCall(address,bytes)": {
        "custom:oz-upgrades-unsafe-allow-reachable": "delegatecall",
        "details": "Upgrade the implementation of the proxy to `newImplementation`, and subsequently execute the function call encoded in `data`. Calls {_authorizeUpgrade}. Emits an {Upgraded} event."
      }
    },
    "version": 1
  },
  "userdoc": {
    "kind": "user",
    "methods": {},
    "version": 1
  },
  "storageLayout": {
    "storage": [
      {
        "astId": 464,
        "contract": "contracts/BondfireNFTStaking.sol:BondfireNFTStaking",
        "label": "_initialized",
        "offset": 0,
        "slot": "0",
        "type": "t_uint8"
      },
      {
        "astId": 467,
        "contract": "contracts/BondfireNFTStaking.sol:BondfireNFTStaking",
        "label": "_initializing",
        "offset": 1,
        "slot": "0",
        "type": "t_bool"
      },
      {
        "astId": 7,
        "contract": "contracts/BondfireNFTStaking.sol:BondfireNFTStaking",
        "label": "_owner",
        "offset": 2,
        "slot": "0",
        "type": "t_address"
      },
      {
        "astId": 1470,
        "contract": "contracts/BondfireNFTStaking.sol:BondfireNFTStaking",
        "label": "userInfo",
        "offset": 0,
        "slot": "1",
        "type": "t_mapping(t_address,t_struct(UserInfo)1465_storage)"
      },
      {
        "astId": 1472,
        "contract": "contracts/BondfireNFTStaking.sol:BondfireNFTStaking",
        "label": "totalUsers",
        "offset": 0,
        "slot": "2",
        "type": "t_uint256"
      },
      {
        "astId": 1474,
        "contract": "contracts/BondfireNFTStaking.sol:BondfireNFTStaking",
        "label": "totalInStake",
        "offset": 0,
        "slot": "3",
        "type": "t_uint256"
      },
      {
        "astId": 1476,
        "contract": "contracts/BondfireNFTStaking.sol:BondfireNFTStaking",
        "label": "accPerShare",
        "offset": 0,
        "slot": "4",
        "type": "t_uint256"
      },
      {
        "astId": 1478,
        "contract": "contracts/BondfireNFTStaking.sol:BondfireNFTStaking",
        "label": "totalBtc",
        "offset": 0,
        "slot": "5",
        "type": "t_uint256"
      },
      {
        "astId": 1480,
        "contract": "contracts/BondfireNFTStaking.sol:BondfireNFTStaking",
        "label": "autoIncrease",
        "offset": 0,
        "slot": "6",
        "type": "t_bool"
      }
    ],
    "types": {
      "t_address": {
        "encoding": "inplace",
        "label": "address",
        "numberOfBytes": "20"
      },
      "t_bool": {
        "encoding": "inplace",
        "label": "bool",
        "numberOfBytes": "1"
      },
      "t_mapping(t_address,t_struct(UserInfo)1465_storage)": {
        "encoding": "mapping",
        "key": "t_address",
        "label": "mapping(address => struct BondfireNFTStaking.UserInfo)",
        "numberOfBytes": "32",
        "value": "t_struct(UserInfo)1465_storage"
      },
      "t_struct(UserInfo)1465_storage": {
        "encoding": "inplace",
        "label": "struct BondfireNFTStaking.UserInfo",
        "members": [
          {
            "astId": 1450,
            "contract": "contracts/BondfireNFTStaking.sol:BondfireNFTStaking",
            "label": "positionId",
            "offset": 0,
            "slot": "0",
            "type": "t_uint256"
          },
          {
            "astId": 1452,
            "contract": "contracts/BondfireNFTStaking.sol:BondfireNFTStaking",
            "label": "amount",
            "offset": 0,
            "slot": "1",
            "type": "t_uint256"
          },
          {
            "astId": 1454,
            "contract": "contracts/BondfireNFTStaking.sol:BondfireNFTStaking",
            "label": "rewardDebt",
            "offset": 0,
            "slot": "2",
            "type": "t_uint256"
          },
          {
            "astId": 1456,
            "contract": "contracts/BondfireNFTStaking.sol:BondfireNFTStaking",
            "label": "maxAmount",
            "offset": 0,
            "slot": "3",
            "type": "t_uint256"
          },
          {
            "astId": 1458,
            "contract": "contracts/BondfireNFTStaking.sol:BondfireNFTStaking",
            "label": "registerAt",
            "offset": 0,
            "slot": "4",
            "type": "t_uint256"
          },
          {
            "astId": 1460,
            "contract": "contracts/BondfireNFTStaking.sol:BondfireNFTStaking",
            "label": "endAt",
            "offset": 0,
            "slot": "5",
            "type": "t_uint256"
          },
          {
            "astId": 1462,
            "contract": "contracts/BondfireNFTStaking.sol:BondfireNFTStaking",
            "label": "reward",
            "offset": 0,
            "slot": "6",
            "type": "t_uint256"
          },
          {
            "astId": 1464,
            "contract": "contracts/BondfireNFTStaking.sol:BondfireNFTStaking",
            "label": "ended",
            "offset": 0,
            "slot": "7",
            "type": "t_bool"
          }
        ],
        "numberOfBytes": "256"
      },
      "t_uint256": {
        "encoding": "inplace",
        "label": "uint256",
        "numberOfBytes": "32"
      },
      "t_uint8": {
        "encoding": "inplace",
        "label": "uint8",
        "numberOfBytes": "1"
      }
    }
  }
}